{
  "_format": "hh-sol-artifact-1",
  "contractName": "Complaint",
  "sourceName": "contracts/Complaints.sol",
  "abi": [
    {
      "inputs": [],
      "stateMutability": "nonpayable",
      "type": "constructor"
    },
    {
      "anonymous": false,
      "inputs": [
        {
          "indexed": false,
          "internalType": "address",
          "name": "",
          "type": "address"
        },
        {
          "indexed": false,
          "internalType": "string",
          "name": "",
          "type": "string"
        }
      ],
      "name": "ComplaintRegistered",
      "type": "event"
    },
    {
      "anonymous": false,
      "inputs": [
        {
          "indexed": false,
          "internalType": "address",
          "name": "",
          "type": "address"
        }
      ],
      "name": "ComplaintUpdated",
      "type": "event"
    },
    {
      "anonymous": false,
      "inputs": [
        {
          "indexed": false,
          "internalType": "address",
          "name": "",
          "type": "address"
        },
        {
          "indexed": false,
          "internalType": "uint256",
          "name": "",
          "type": "uint256"
        }
      ],
      "name": "ReponseAdded",
      "type": "event"
    },
    {
      "inputs": [],
      "name": "LastRespondedComplaint",
      "outputs": [
        {
          "internalType": "uint256",
          "name": "",
          "type": "uint256"
        }
      ],
      "stateMutability": "view",
      "type": "function"
    },
    {
      "inputs": [
        {
          "internalType": "string",
          "name": "_name",
          "type": "string"
        },
        {
          "internalType": "string",
          "name": "_email",
          "type": "string"
        },
        {
          "internalType": "string",
          "name": "_addr",
          "type": "string"
        },
        {
          "internalType": "uint256",
          "name": "_mobile",
          "type": "uint256"
        },
        {
          "internalType": "string",
          "name": "_description",
          "type": "string"
        }
      ],
      "name": "Register",
      "outputs": [],
      "stateMutability": "nonpayable",
      "type": "function"
    },
    {
      "inputs": [
        {
          "internalType": "uint256",
          "name": "_count",
          "type": "uint256"
        },
        {
          "internalType": "string",
          "name": "_response",
          "type": "string"
        }
      ],
      "name": "Respond",
      "outputs": [],
      "stateMutability": "nonpayable",
      "type": "function"
    },
    {
      "inputs": [
        {
          "internalType": "address",
          "name": "_address",
          "type": "address"
        }
      ],
      "name": "Search",
      "outputs": [
        {
          "components": [
            {
              "internalType": "uint256",
              "name": "id",
              "type": "uint256"
            },
            {
              "internalType": "string",
              "name": "name",
              "type": "string"
            },
            {
              "internalType": "string",
              "name": "email",
              "type": "string"
            },
            {
              "internalType": "string",
              "name": "addr",
              "type": "string"
            },
            {
              "internalType": "uint256",
              "name": "mobile",
              "type": "uint256"
            },
            {
              "internalType": "address",
              "name": "wallet",
              "type": "address"
            },
            {
              "internalType": "string",
              "name": "description",
              "type": "string"
            },
            {
              "internalType": "uint256",
              "name": "time",
              "type": "uint256"
            },
            {
              "internalType": "string",
              "name": "repsonse",
              "type": "string"
            },
            {
              "internalType": "uint256",
              "name": "repsonse_time",
              "type": "uint256"
            },
            {
              "internalType": "bool",
              "name": "status",
              "type": "bool"
            }
          ],
          "internalType": "struct Complaint.complaint",
          "name": "",
          "type": "tuple"
        }
      ],
      "stateMutability": "view",
      "type": "function"
    },
    {
      "inputs": [],
      "name": "TotalCompalints",
      "outputs": [
        {
          "internalType": "uint256",
          "name": "",
          "type": "uint256"
        }
      ],
      "stateMutability": "view",
      "type": "function"
    },
    {
      "inputs": [],
      "name": "TotalRespondedComplaints",
      "outputs": [
        {
          "internalType": "uint256",
          "name": "",
          "type": "uint256"
        }
      ],
      "stateMutability": "view",
      "type": "function"
    },
    {
      "inputs": [],
      "name": "TotalStatusUpdate",
      "outputs": [
        {
          "internalType": "uint256",
          "name": "",
          "type": "uint256"
        }
      ],
      "stateMutability": "view",
      "type": "function"
    },
    {
      "inputs": [
        {
          "internalType": "address",
          "name": "_newOwner",
          "type": "address"
        }
      ],
      "name": "TransferOwner",
      "outputs": [],
      "stateMutability": "nonpayable",
      "type": "function"
    },
    {
      "inputs": [],
      "name": "UpdateStatus",
      "outputs": [],
      "stateMutability": "nonpayable",
      "type": "function"
    },
    {
      "inputs": [],
      "name": "addComplaint",
      "outputs": [
        {
          "internalType": "uint256",
          "name": "",
          "type": "uint256"
        }
      ],
      "stateMutability": "view",
      "type": "function"
    },
    {
      "inputs": [],
      "name": "getAllComplaints",
      "outputs": [
        {
          "components": [
            {
              "internalType": "uint256",
              "name": "id",
              "type": "uint256"
            },
            {
              "internalType": "string",
              "name": "name",
              "type": "string"
            },
            {
              "internalType": "string",
              "name": "email",
              "type": "string"
            },
            {
              "internalType": "string",
              "name": "addr",
              "type": "string"
            },
            {
              "internalType": "uint256",
              "name": "mobile",
              "type": "uint256"
            },
            {
              "internalType": "address",
              "name": "wallet",
              "type": "address"
            },
            {
              "internalType": "string",
              "name": "description",
              "type": "string"
            },
            {
              "internalType": "uint256",
              "name": "time",
              "type": "uint256"
            },
            {
              "internalType": "string",
              "name": "repsonse",
              "type": "string"
            },
            {
              "internalType": "uint256",
              "name": "repsonse_time",
              "type": "uint256"
            },
            {
              "internalType": "bool",
              "name": "status",
              "type": "bool"
            }
          ],
          "internalType": "struct Complaint.complaint[]",
          "name": "",
          "type": "tuple[]"
        }
      ],
      "stateMutability": "view",
      "type": "function"
    },
    {
      "inputs": [
        {
          "internalType": "uint256",
          "name": "_count",
          "type": "uint256"
        }
      ],
      "name": "getComplaint",
      "outputs": [
        {
          "components": [
            {
              "internalType": "uint256",
              "name": "id",
              "type": "uint256"
            },
            {
              "internalType": "string",
              "name": "name",
              "type": "string"
            },
            {
              "internalType": "string",
              "name": "email",
              "type": "string"
            },
            {
              "internalType": "string",
              "name": "addr",
              "type": "string"
            },
            {
              "internalType": "uint256",
              "name": "mobile",
              "type": "uint256"
            },
            {
              "internalType": "address",
              "name": "wallet",
              "type": "address"
            },
            {
              "internalType": "string",
              "name": "description",
              "type": "string"
            },
            {
              "internalType": "uint256",
              "name": "time",
              "type": "uint256"
            },
            {
              "internalType": "string",
              "name": "repsonse",
              "type": "string"
            },
            {
              "internalType": "uint256",
              "name": "repsonse_time",
              "type": "uint256"
            },
            {
              "internalType": "bool",
              "name": "status",
              "type": "bool"
            }
          ],
          "internalType": "struct Complaint.complaint",
          "name": "",
          "type": "tuple"
        }
      ],
      "stateMutability": "view",
      "type": "function"
    },
    {
      "inputs": [],
      "name": "owner",
      "outputs": [
        {
          "internalType": "address",
          "name": "",
          "type": "address"
        }
      ],
      "stateMutability": "view",
      "type": "function"
    }
  ],
  "bytecode": "0x608060405234801561001057600080fd5b50336000806101000a81548173ffffffffffffffffffffffffffffffffffffffff021916908373ffffffffffffffffffffffffffffffffffffffff1602179055506000600181905550612a5c806100686000396000f3fe608060405234801561001057600080fd5b50600436106100cf5760003560e01c80636c0d2a4e1161008c57806395e5b16f1161006657806395e5b16f146101f2578063be51455e1461020e578063dee8ae431461022a578063f1a4f7af1461025a576100cf565b80636c0d2a4e14610188578063858ac4d8146101b85780638da5cb5b146101d4576100cf565b80630616cf4f146100d45780630b5c3fc7146100f25780630dac953914610110578063194cd3831461012e57806354eb10651461014c5780636b5fda891461016a575b600080fd5b6100dc610264565b6040516100e99190611c8e565b60405180910390f35b6100fa61026e565b6040516101079190611c8e565b60405180910390f35b610118610278565b6040516101259190611f71565b60405180910390f35b61013661064b565b6040516101439190611c8e565b60405180910390f35b610154610655565b6040516101619190611c8e565b60405180910390f35b61017261065f565b60405161017f9190611c8e565b60405180910390f35b6101a2600480360381019061019d9190611fc9565b610674565b6040516101af9190612101565b60405180910390f35b6101d260048036038101906101cd9190611fc9565b610a41565b005b6101dc610b81565b6040516101e99190612132565b60405180910390f35b61020c600480360381019061020791906121de565b610ba5565b005b6102286004803603810190610223919061223e565b610e01565b005b610244600480360381019061023f919061233a565b611673565b6040516102519190612101565b60405180910390f35b610262611a14565b005b6000600154905090565b6000600254905090565b60606005805480602002602001604051908101604052809291908181526020016000905b8282101561064257838290600052602060002090600b020160405180610160016040529081600082015481526020016001820180546102da90612396565b80601f016020809104026020016040519081016040528092919081815260200182805461030690612396565b80156103535780601f1061032857610100808354040283529160200191610353565b820191906000526020600020905b81548152906001019060200180831161033657829003601f168201915b5050505050815260200160028201805461036c90612396565b80601f016020809104026020016040519081016040528092919081815260200182805461039890612396565b80156103e55780601f106103ba576101008083540402835291602001916103e5565b820191906000526020600020905b8154815290600101906020018083116103c857829003601f168201915b505050505081526020016003820180546103fe90612396565b80601f016020809104026020016040519081016040528092919081815260200182805461042a90612396565b80156104775780601f1061044c57610100808354040283529160200191610477565b820191906000526020600020905b81548152906001019060200180831161045a57829003601f168201915b50505050508152602001600482015481526020016005820160009054906101000a900473ffffffffffffffffffffffffffffffffffffffff1673ffffffffffffffffffffffffffffffffffffffff1673ffffffffffffffffffffffffffffffffffffffff1681526020016006820180546104f090612396565b80601f016020809104026020016040519081016040528092919081815260200182805461051c90612396565b80156105695780601f1061053e57610100808354040283529160200191610569565b820191906000526020600020905b81548152906001019060200180831161054c57829003601f168201915b505050505081526020016007820154815260200160088201805461058c90612396565b80601f01602080910402602001604051908101604052809291908181526020018280546105b890612396565b80156106055780601f106105da57610100808354040283529160200191610605565b820191906000526020600020905b8154815290600101906020018083116105e857829003601f168201915b5050505050815260200160098201548152602001600a820160009054906101000a900460ff1615151515815250508152602001906001019061029c565b50505050905090565b6000600354905090565b6000600454905090565b60006001805461066f91906123f6565b905090565b61067c611c03565b600660008373ffffffffffffffffffffffffffffffffffffffff1673ffffffffffffffffffffffffffffffffffffffff16815260200190815260200160002060405180610160016040529081600082015481526020016001820180546106e190612396565b80601f016020809104026020016040519081016040528092919081815260200182805461070d90612396565b801561075a5780601f1061072f5761010080835404028352916020019161075a565b820191906000526020600020905b81548152906001019060200180831161073d57829003601f168201915b5050505050815260200160028201805461077390612396565b80601f016020809104026020016040519081016040528092919081815260200182805461079f90612396565b80156107ec5780601f106107c1576101008083540402835291602001916107ec565b820191906000526020600020905b8154815290600101906020018083116107cf57829003601f168201915b5050505050815260200160038201805461080590612396565b80601f016020809104026020016040519081016040528092919081815260200182805461083190612396565b801561087e5780601f106108535761010080835404028352916020019161087e565b820191906000526020600020905b81548152906001019060200180831161086157829003601f168201915b50505050508152602001600482015481526020016005820160009054906101000a900473ffffffffffffffffffffffffffffffffffffffff1673ffffffffffffffffffffffffffffffffffffffff1673ffffffffffffffffffffffffffffffffffffffff1681526020016006820180546108f790612396565b80601f016020809104026020016040519081016040528092919081815260200182805461092390612396565b80156109705780601f1061094557610100808354040283529160200191610970565b820191906000526020600020905b81548152906001019060200180831161095357829003601f168201915b505050505081526020016007820154815260200160088201805461099390612396565b80601f01602080910402602001604051908101604052809291908181526020018280546109bf90612396565b8015610a0c5780601f106109e157610100808354040283529160200191610a0c565b820191906000526020600020905b8154815290600101906020018083116109ef57829003601f168201915b5050505050815260200160098201548152602001600a820160009054906101000a900460ff1615151515815250509050919050565b60008054906101000a900473ffffffffffffffffffffffffffffffffffffffff1673ffffffffffffffffffffffffffffffffffffffff163373ffffffffffffffffffffffffffffffffffffffff1614610acf576040517f08c379a0000000000000000000000000000000000000000000000000000000008152600401610ac690612487565b60405180910390fd5b600073ffffffffffffffffffffffffffffffffffffffff168173ffffffffffffffffffffffffffffffffffffffff1603610b3e576040517f08c379a0000000000000000000000000000000000000000000000000000000008152600401610b35906124f3565b60405180910390fd5b806000806101000a81548173ffffffffffffffffffffffffffffffffffffffff021916908373ffffffffffffffffffffffffffffffffffffffff16021790555050565b60008054906101000a900473ffffffffffffffffffffffffffffffffffffffff1681565b60008054906101000a900473ffffffffffffffffffffffffffffffffffffffff1673ffffffffffffffffffffffffffffffffffffffff163373ffffffffffffffffffffffffffffffffffffffff1614610c33576040517f08c379a0000000000000000000000000000000000000000000000000000000008152600401610c2a90612487565b60405180910390fd5b60018310158015610c51575060018054610c4d91906123f6565b8311155b610c90576040517f08c379a0000000000000000000000000000000000000000000000000000000008152600401610c879061255f565b60405180910390fd5b8181600760008681526020019081526020016000206008019182610cb5929190612765565b504260076000858152602001908152602001600020600901819055508260028190555060006007600085815260200190815260200160002060050160009054906101000a900473ffffffffffffffffffffffffffffffffffffffff1690508282600660008473ffffffffffffffffffffffffffffffffffffffff1673ffffffffffffffffffffffffffffffffffffffff1681526020019081526020016000206008019182610d64929190612765565b5042600660008373ffffffffffffffffffffffffffffffffffffffff1673ffffffffffffffffffffffffffffffffffffffff16815260200190815260200160002060090181905550600360008154610dbb90612835565b919050819055507f779f4bfa4e183d9fff2f9e039f32287bd297e4826e7b5ba3e3bcb751dd3bba548185604051610df392919061287d565b60405180910390a150505050565b60405180610160016040528060015481526020018a8a8080601f016020809104026020016040519081016040528093929190818152602001838380828437600081840152601f19601f82011690508083019250505050505050815260200188888080601f016020809104026020016040519081016040528093929190818152602001838380828437600081840152601f19601f82011690508083019250505050505050815260200186868080601f016020809104026020016040519081016040528093929190818152602001838380828437600081840152601f19601f8201169050808301925050505050505081526020018481526020013373ffffffffffffffffffffffffffffffffffffffff16815260200183838080601f016020809104026020016040519081016040528093929190818152602001838380828437600081840152601f19601f8201169050808301925050505050505081526020014281526020016040518060200160405280600081525081526020016000815260200160001515815250600660003373ffffffffffffffffffffffffffffffffffffffff1673ffffffffffffffffffffffffffffffffffffffff168152602001908152602001600020600082015181600001556020820151816001019081610fe691906128a6565b506040820151816002019081610ffc91906128a6565b50606082015181600301908161101291906128a6565b506080820151816004015560a08201518160050160006101000a81548173ffffffffffffffffffffffffffffffffffffffff021916908373ffffffffffffffffffffffffffffffffffffffff16021790555060c082015181600601908161107991906128a6565b5060e0820151816007015561010082015181600801908161109a91906128a6565b50610120820151816009015561014082015181600a0160006101000a81548160ff02191690831515021790555090505060405180610160016040528060015481526020018a8a8080601f016020809104026020016040519081016040528093929190818152602001838380828437600081840152601f19601f82011690508083019250505050505050815260200188888080601f016020809104026020016040519081016040528093929190818152602001838380828437600081840152601f19601f82011690508083019250505050505050815260200186868080601f016020809104026020016040519081016040528093929190818152602001838380828437600081840152601f19601f8201169050808301925050505050505081526020018481526020013373ffffffffffffffffffffffffffffffffffffffff16815260200183838080601f016020809104026020016040519081016040528093929190818152602001838380828437600081840152601f19601f820116905080830192505050505050508152602001428152602001604051806020016040528060008152508152602001600081526020016000151581525060076000600154815260200190815260200160002060008201518160000155602082015181600101908161128591906128a6565b50604082015181600201908161129b91906128a6565b5060608201518160030190816112b191906128a6565b506080820151816004015560a08201518160050160006101000a81548173ffffffffffffffffffffffffffffffffffffffff021916908373ffffffffffffffffffffffffffffffffffffffff16021790555060c082015181600601908161131891906128a6565b5060e0820151816007015561010082015181600801908161133991906128a6565b50610120820151816009015561014082015181600a0160006101000a81548160ff021916908315150217905550905050600180546113779190612978565b600181905550600560405180610160016040528060015481526020018b8b8080601f016020809104026020016040519081016040528093929190818152602001838380828437600081840152601f19601f82011690508083019250505050505050815260200189898080601f016020809104026020016040519081016040528093929190818152602001838380828437600081840152601f19601f82011690508083019250505050505050815260200187878080601f016020809104026020016040519081016040528093929190818152602001838380828437600081840152601f19601f8201169050808301925050505050505081526020018581526020013373ffffffffffffffffffffffffffffffffffffffff16815260200184848080601f016020809104026020016040519081016040528093929190818152602001838380828437600081840152601f19601f820116905080830192505050505050508152602001428152602001604051806020016040528060008152508152602001600081526020016000151581525090806001815401808255809150506001900390600052602060002090600b020160009091909190915060008201518160000155602082015181600101908161154e91906128a6565b50604082015181600201908161156491906128a6565b50606082015181600301908161157a91906128a6565b506080820151816004015560a08201518160050160006101000a81548173ffffffffffffffffffffffffffffffffffffffff021916908373ffffffffffffffffffffffffffffffffffffffff16021790555060c08201518160060190816115e191906128a6565b5060e0820151816007015561010082015181600801908161160291906128a6565b50610120820151816009015561014082015181600a0160006101000a81548160ff02191690831515021790555050507f45e888f68aba9c0869a36357b63a9b3fab919443b029434998fca5281d7d40e93360405161166091906129f8565b60405180910390a1505050505050505050565b61167b611c03565b6007600083815260200190815260200160002060405180610160016040529081600082015481526020016001820180546116b490612396565b80601f01602080910402602001604051908101604052809291908181526020018280546116e090612396565b801561172d5780601f106117025761010080835404028352916020019161172d565b820191906000526020600020905b81548152906001019060200180831161171057829003601f168201915b5050505050815260200160028201805461174690612396565b80601f016020809104026020016040519081016040528092919081815260200182805461177290612396565b80156117bf5780601f10611794576101008083540402835291602001916117bf565b820191906000526020600020905b8154815290600101906020018083116117a257829003601f168201915b505050505081526020016003820180546117d890612396565b80601f016020809104026020016040519081016040528092919081815260200182805461180490612396565b80156118515780601f1061182657610100808354040283529160200191611851565b820191906000526020600020905b81548152906001019060200180831161183457829003601f168201915b50505050508152602001600482015481526020016005820160009054906101000a900473ffffffffffffffffffffffffffffffffffffffff1673ffffffffffffffffffffffffffffffffffffffff1673ffffffffffffffffffffffffffffffffffffffff1681526020016006820180546118ca90612396565b80601f01602080910402602001604051908101604052809291908181526020018280546118f690612396565b80156119435780601f1061191857610100808354040283529160200191611943565b820191906000526020600020905b81548152906001019060200180831161192657829003601f168201915b505050505081526020016007820154815260200160088201805461196690612396565b80601f016020809104026020016040519081016040528092919081815260200182805461199290612396565b80156119df5780601f106119b4576101008083540402835291602001916119df565b820191906000526020600020905b8154815290600101906020018083116119c257829003601f168201915b5050505050815260200160098201548152602001600a820160009054906101000a900460ff1615151515815250509050919050565b60001515600660003373ffffffffffffffffffffffffffffffffffffffff1673ffffffffffffffffffffffffffffffffffffffff168152602001908152602001600020600a0160009054906101000a900460ff16151503611a8657600460008154611a7e90612835565b919050819055505b600660003373ffffffffffffffffffffffffffffffffffffffff1673ffffffffffffffffffffffffffffffffffffffff168152602001908152602001600020600a0160009054906101000a900460ff1615600660003373ffffffffffffffffffffffffffffffffffffffff1673ffffffffffffffffffffffffffffffffffffffff168152602001908152602001600020600a0160006101000a81548160ff0219169083151502179055506000600660003373ffffffffffffffffffffffffffffffffffffffff1673ffffffffffffffffffffffffffffffffffffffff16815260200190815260200160002060000154905060076000828152602001908152602001600020600a0160009054906101000a900460ff161560076000838152602001908152602001600020600a0160006101000a81548160ff0219169083151502179055507f36c4caef98d9fd1ccf3e3c27bc7686780826a2b9decd62d5c308d9ac5f2947f533604051611bf89190612132565b60405180910390a150565b6040518061016001604052806000815260200160608152602001606081526020016060815260200160008152602001600073ffffffffffffffffffffffffffffffffffffffff168152602001606081526020016000815260200160608152602001600081526020016000151581525090565b6000819050919050565b611c8881611c75565b82525050565b6000602082019050611ca36000830184611c7f565b92915050565b600081519050919050565b600082825260208201905092915050565b6000819050602082019050919050565b611cde81611c75565b82525050565b600081519050919050565b600082825260208201905092915050565b60005b83811015611d1e578082015181840152602081019050611d03565b60008484015250505050565b6000601f19601f8301169050919050565b6000611d4682611ce4565b611d508185611cef565b9350611d60818560208601611d00565b611d6981611d2a565b840191505092915050565b600073ffffffffffffffffffffffffffffffffffffffff82169050919050565b6000611d9f82611d74565b9050919050565b611daf81611d94565b82525050565b60008115159050919050565b611dca81611db5565b82525050565b600061016083016000830151611de96000860182611cd5565b5060208301518482036020860152611e018282611d3b565b91505060408301518482036040860152611e1b8282611d3b565b91505060608301518482036060860152611e358282611d3b565b9150506080830151611e4a6080860182611cd5565b5060a0830151611e5d60a0860182611da6565b5060c083015184820360c0860152611e758282611d3b565b91505060e0830151611e8a60e0860182611cd5565b50610100830151848203610100860152611ea48282611d3b565b915050610120830151611ebb610120860182611cd5565b50610140830151611ed0610140860182611dc1565b508091505092915050565b6000611ee78383611dd0565b905092915050565b6000602082019050919050565b6000611f0782611ca9565b611f118185611cb4565b935083602082028501611f2385611cc5565b8060005b85811015611f5f5784840389528151611f408582611edb565b9450611f4b83611eef565b925060208a01995050600181019050611f27565b50829750879550505050505092915050565b60006020820190508181036000830152611f8b8184611efc565b905092915050565b600080fd5b600080fd5b611fa681611d94565b8114611fb157600080fd5b50565b600081359050611fc381611f9d565b92915050565b600060208284031215611fdf57611fde611f93565b5b6000611fed84828501611fb4565b91505092915050565b60006101608301600083015161200f6000860182611cd5565b50602083015184820360208601526120278282611d3b565b915050604083015184820360408601526120418282611d3b565b9150506060830151848203606086015261205b8282611d3b565b91505060808301516120706080860182611cd5565b5060a083015161208360a0860182611da6565b5060c083015184820360c086015261209b8282611d3b565b91505060e08301516120b060e0860182611cd5565b506101008301518482036101008601526120ca8282611d3b565b9150506101208301516120e1610120860182611cd5565b506101408301516120f6610140860182611dc1565b508091505092915050565b6000602082019050818103600083015261211b8184611ff6565b905092915050565b61212c81611d94565b82525050565b60006020820190506121476000830184612123565b92915050565b61215681611c75565b811461216157600080fd5b50565b6000813590506121738161214d565b92915050565b600080fd5b600080fd5b600080fd5b60008083601f84011261219e5761219d612179565b5b8235905067ffffffffffffffff8111156121bb576121ba61217e565b5b6020830191508360018202830111156121d7576121d6612183565b5b9250929050565b6000806000604084860312156121f7576121f6611f93565b5b600061220586828701612164565b935050602084013567ffffffffffffffff81111561222657612225611f98565b5b61223286828701612188565b92509250509250925092565b600080600080600080600080600060a08a8c0312156122605761225f611f93565b5b60008a013567ffffffffffffffff81111561227e5761227d611f98565b5b61228a8c828d01612188565b995099505060208a013567ffffffffffffffff8111156122ad576122ac611f98565b5b6122b98c828d01612188565b975097505060408a013567ffffffffffffffff8111156122dc576122db611f98565b5b6122e88c828d01612188565b955095505060606122fb8c828d01612164565b93505060808a013567ffffffffffffffff81111561231c5761231b611f98565b5b6123288c828d01612188565b92509250509295985092959850929598565b6000602082840312156123505761234f611f93565b5b600061235e84828501612164565b91505092915050565b7f4e487b7100000000000000000000000000000000000000000000000000000000600052602260045260246000fd5b600060028204905060018216806123ae57607f821691505b6020821081036123c1576123c0612367565b5b50919050565b7f4e487b7100000000000000000000000000000000000000000000000000000000600052601160045260246000fd5b600061240182611c75565b915061240c83611c75565b9250828203905081811115612424576124236123c7565b5b92915050565b600082825260208201905092915050565b7f4e6f7420746865206f776e657200000000000000000000000000000000000000600082015250565b6000612471600d8361242a565b915061247c8261243b565b602082019050919050565b600060208201905081810360008301526124a081612464565b9050919050565b7f496e76616c696420616464726573730000000000000000000000000000000000600082015250565b60006124dd600f8361242a565b91506124e8826124a7565b602082019050919050565b6000602082019050818103600083015261250c816124d0565b9050919050565b7f496e76616c696420436f756e7400000000000000000000000000000000000000600082015250565b6000612549600d8361242a565b915061255482612513565b602082019050919050565b600060208201905081810360008301526125788161253c565b9050919050565b600082905092915050565b7f4e487b7100000000000000000000000000000000000000000000000000000000600052604160045260246000fd5b60008190508160005260206000209050919050565b60006020601f8301049050919050565b600082821b905092915050565b60006008830261261b7fffffffffffffffffffffffffffffffffffffffffffffffffffffffffffffffff826125de565b61262586836125de565b95508019841693508086168417925050509392505050565b6000819050919050565b600061266261265d61265884611c75565b61263d565b611c75565b9050919050565b6000819050919050565b61267c83612647565b61269061268882612669565b8484546125eb565b825550505050565b600090565b6126a5612698565b6126b0818484612673565b505050565b5b818110156126d4576126c960008261269d565b6001810190506126b6565b5050565b601f821115612719576126ea816125b9565b6126f3846125ce565b81016020851015612702578190505b61271661270e856125ce565b8301826126b5565b50505b505050565b600082821c905092915050565b600061273c6000198460080261271e565b1980831691505092915050565b6000612755838361272b565b9150826002028217905092915050565b61276f838361257f565b67ffffffffffffffff8111156127885761278761258a565b5b6127928254612396565b61279d8282856126d8565b6000601f8311600181146127cc57600084156127ba578287013590505b6127c48582612749565b86555061282c565b601f1984166127da866125b9565b60005b82811015612802578489013582556001820191506020850194506020810190506127dd565b8683101561281f578489013561281b601f89168261272b565b8355505b6001600288020188555050505b50505050505050565b600061284082611c75565b91507fffffffffffffffffffffffffffffffffffffffffffffffffffffffffffffffff8203612872576128716123c7565b5b600182019050919050565b60006040820190506128926000830185612123565b61289f6020830184611c7f565b9392505050565b6128af82611ce4565b67ffffffffffffffff8111156128c8576128c761258a565b5b6128d28254612396565b6128dd8282856126d8565b600060209050601f83116001811461291057600084156128fe578287015190505b6129088582612749565b865550612970565b601f19841661291e866125b9565b60005b8281101561294657848901518255600182019150602085019450602081019050612921565b86831015612963578489015161295f601f89168261272b565b8355505b6001600288020188555050505b505050505050565b600061298382611c75565b915061298e83611c75565b92508282019050808211156129a6576129a56123c7565b5b92915050565b7f436f6d706c61696e742052656769737465726400000000000000000000000000600082015250565b60006129e260138361242a565b91506129ed826129ac565b602082019050919050565b6000604082019050612a0d6000830184612123565b8181036020830152612a1e816129d5565b90509291505056fea264697066735822122030c712fe94b2a5e8c286ee3c9126aa2bf4ab5456935cce73e81f71f9a6df151d64736f6c63430008130033",
  "linkReferences": {},
  "deployedLinkReferences": {}
}